:020000040800F2
:10000000180400209D010008E30A0008390A0008CE
:10001000E10A000885020008950B000800000000B6
:10002000000000000000000000000000E70A0008D7
:100030008702000800000000E50A0008E90A00083D
:10004000B7010008B7010008B7010008B7010008B0
:10005000B7010008B7010008B7010008B7010008A0
:10006000B7010008B7010008B7010008B701000890
:10007000B7010008B7010008B7010008B701000880
:10008000B7010008B7010008B7010008B701000870
:10009000B7010008B7010008B7010008B701000860
:1000A000B7010008B7010008B7010008B701000850
:1000B000B7010008B7010008B7010008B701000840
:1000C000B7010008B7010008B7010008B701000830
:1000D000B7010008B7010008B7010008B701000820
:1000E000B7010008B7010008B7010008B701000810
:1000F000B7010008B7010008B7010008B701000800
:10010000B7010008B7010008B7010008B7010008EF
:10011000B7010008B7010008B7010008B7010008DF
:10012000B7010008B7010008B7010008B7010008CF
:10013000B7010008B7010008B7010008B7010008BF
:10014000B7010008B7010008B7010008B7010008AF
:10015000B7010008B7010008B7010008B70100089F
:10016000B7010008B7010008B7010008B70100088F
:10017000B7010008B7010008B7010008000000003F
:10018000B7010008B7010008DFF80CD000F068F8EC
:1001900000480047BD0B00081804002006488047AF
:1001A00006480047FEE7FEE7FEE7FEE7FEE7FEE75C
:1001B000FEE7FEE7FEE7FEE7790B0008890100088D
:1001C0002DE9F05F0546002092469B46884606468C
:1001D000814640241BE0284641464746224600F01F
:1001E0002FF853465A46C01A914110D3114618466B
:1001F000224600F016F82D1A67EB01084F462246FA
:100200000120002100F00DF817EB00094E41201EDF
:10021000A4F10104DFDC484631462A464346BDE8E6
:10022000F09F202A04DB203A00FA02F100207047F8
:100230009140C2F1200320FA03F319439040704724
:10024000202A04DB203A21FA02F00021704721FA2B
:1002500002F3D040C2F12002914008431946704792
:10026000064C074D06E0E06840F0010394E8070003
:1002700098471034AC42F6D3FFF78AFF280C0008E9
:10028000480C0008FEE77047B0B5044600F0DEF801
:1002900005469048611C007818BF044400F0D6F869
:1002A000401BA042FAD3B0BD2DE9FC4F5E4A0824A2
:1002B0004FF0010B4FF000084FF0000E90425B4AE8
:1002C00008BF072402444FEAB223072B38BF4FEA86
:1002D000B22400220094BEF1200F08BFBDE8FC8FBD
:1002E0000F680BFA02F6374200F090804F68122F29
:1002F00000F292800BFA07F414F0061F00F08C80D5
:1003000003234FEA420A03FA0EF48368CD686FEACA
:10031000040CA34305FA0EF52B4383603B094568A3
:100320009340B5432B434360C4688D6804EA0C04D2
:1003300005FA0AF52C43C46047F01004122C12D1C0
:1003400008F01C040F2303FA04F56FF0030303EA1B
:1003500052070744D7F820900B6929EA0505A34006
:100360002B433B624F68036807F0030404FA0AF466
:1003700003EA0C0323430360FB0047D500232E4C04
:100380002B4F22F0030501932368BC463D4443F400
:100390008043236023680F2403F48043019308F013
:1003A0000C03019F9C40254FB946EF5927EA0404EE
:1003B000009F07FA03F3234345F80930DCF80030C7
:1003C0004D6843EA0604EF0358BF23EA0604CCF85D
:1003D0000040AF03DCF8043043EA060458BF23EAC8
:1003E0000604CCF80440EF02DCF80830114F43EA71
:1003F000060458BF23EA0604CCF80840AD023B6867
:1004000043EA060458BF23EA06043C6008F10408E6
:100410000EF1020E01325EE70323F24603FA0EF4F8
:100420006FEA040C80E700BF001C02400000FEBF22
:10043000003C01400C3C01404438024008FCFFFFF6
:10044000002A08BF09048161704700000548006860
:10045000704700BF1F48034900780A6810440860CD
:10046000704700BF1000002080B50B48016841F4C0
:1004700000710160016841F480610160016841F42C
:1004800080710160032000F05FF8002000F006F8A2
:1004900000F022F8002080BD003C024070B50D4EF7
:1004A00004464FF47A713078B1FBF0F07649096870
:1004B000B1FBF0F000F0ACFA01250F2C08D838B9E8
:1004C0004FF0FF3021460022002500F021F8746033
:1004D000284670BD0000002082B000200B4901902A
:1004E0004A6842F480424A604A6802F480420192BB
:1004F000019A0090086840F080500860086800F099
:1005000080500090009802B0704700BF4038024011
:1005100070B5134B4FF0FF351B68C3F30223DC1E8D
:1005200083F0070338BF0024042B28BF042305FAF7
:1005300004F605FA03F3B2439943A1401143BDE821
:10054000704000F029BB00BF05494FF6FF030A6861
:100550001A4060F30A22034810430860704700BF46
:100560000CED00E00000FA052DE9F041002860D014
:10057000434B04468846D3F8000400F00F0088423D
:1005800007D283F80084D3F8000400F00F00404540
:100590004FD12068810711D5410703D5996841F4EF
:1005A000E0519960010703D5996841F46041996071
:1005B000A1689A6822F0F00211439960C00731D116
:1005C000D3F8000400F00F00404507D983F80084F9
:1005D000D3F8000400F00F0040452AD120684107FD
:1005E00005D5E1689A6822F4E0521143996000074A
:1005F00006D52069996821F4604141EAC0009860FD
:100600001C4600F045F8A1681E4AC1F30311515C75
:10061000C8401D4908601D480068FFF73FFF0020E3
:10062000BDE8F0816068811E022905D21968890140
:1006300007D40120BDE8F08101281DD11968890384
:10064000F7D599681D4621F0030108439860FFF72C
:10065000FDFE064641F288376068A9682B4601F026
:100660000C01B1EB800FABD0FFF7F0FE801BB8425E
:10067000F2D90320BDE8F08119688907D9D5E0E7F0
:1006800000380240160C000808000020040000207A
:1006900010B5134C606800F00C00082804D0042842
:1006A00014BF1048104810BD226820680023400283
:1006B00002F03F020C485CBF42F20040C0F2F4007E
:1006C0002168C1F38811A0FB0101FFF779FD2168C2
:1006D0000222C1F3014102EB4101B0FBF1F010BD78
:1006E000043802400024F400001BB7002DE9FC414F
:1006F00000285CD004460078C34EC0070BD0B06819
:1007000000F00C00042840F08F803068800302D590
:10071000606800284BD0207880071AD5B06810F0A8
:100720000C0F09D0B06800F00C00082840F0A2803F
:100730007068400200F19E803068800702D5E06852
:10074000012834D12069316821F0F80141EAC00064
:100750003060207800072DD4207840073ED4A76968
:1007600017B3B06800F00C00082840F0C380012FD8
:100770001DD0E169706800F480028A4217D1216AB5
:1007800000F03F028A4212D147F6C071626A01400E
:1007900091420CD1A16A00F440328A4207D1E16A49
:1007A00000F07060884202D10020BDE8FC81012089
:1007B000BDE8FC8161699548002900F0898001212C
:1007C000C0F8801EFFF742FE0546706F8007C3D455
:1007D000FFF73CFE401B0228F7D988E0306C4FF051
:1007E0000008C0000CD4CDF804804FF00108306C34
:1007F00040F080503064306C00F0805001900198DF
:10080000DC4F3868C00548D4386840F480703860E0
:10081000FFF71CFE05463868C0053ED4FFF716FEFC
:10082000401B0228F7D962E0B06800F00C000828ED
:1008300003D1706840023FF568AF6768B7F5803F45
:1008400007D03068B7F5A02F40F0A58040F4802095
:100850003060306840F480303060FFF7F7FD0546C7
:10086000306880033FF557AFFFF7F0FD401B642869
:10087000F6D93CE0E06800285BD0644801210160C3
:10088000FFF7E4FD0546306880073FF55BAFFFF7F3
:10089000DDFD401B0228F6D929E0A768012F05D00D
:1008A000306F052F56D140F004003067306F40F0B4
:1008B00001003067FFF7CAFD054641F28837306F07
:1008C00080075FD4FFF7C2FD401BB842F7D90EE0A6
:1008D0000021C0F8801EFFF7B9FD0546706F800744
:1008E0007FF53AAFFFF7B2FD401B0228F6D903208F
:1008F000BDE8FC814549002088460866FFF7A6FD53
:100900000546022F0AD14746306880015CD5FFF7C3
:100910009DFD411B03200229F6D946E7306880017E
:100920007FF542AFFFF792FD411B03200229F5D965
:100930003BE7364800210160FFF788FD0546306837
:1009400080077FF506AFFFF781FD411B03200229D9
:10095000F5D92AE720F001003067306F20F004005D
:100960003067FFF773FD0546002FA6D141F28837A7
:10097000306F800706D5FFF769FD411B0320B942A0
:10098000F6D912E7B8F1000F3FF4E9AE306C20F071
:1009900080503064E3E620F480303060306820F42A
:1009A00080203060FFF752FD0546002F7FF458AFDE
:1009B00006E0FFF74BFD411B032064293FF6F5AE2F
:1009C00030688003F5D4A6E61C341FCC0843D90355
:1009D00040EA82104FF6FF72914340EA0460A1F5AD
:1009E00080310843706001203866FFF72FFD044610
:1009F000306880013FF5D8AEFFF728FD011B0320CA
:100A00000229F5D9D1E600BF003802400000474274
:100A1000411E0020B0EB116F1CBF01207047044A3B
:100A2000F023516003490B700721906011607047FB
:100A300010E000E023ED00E0FEE700002DE9F043C8
:100A400087B000272448254C00224FF48076069773
:100A50000197016841F001010160016801F00101A5
:100A6000019101990197016841F0800101600168DD
:100A700001F08001019101990197016841F00401A1
:100A800001604FF48071006800F00400019001984B
:100A90002046FFF7D5FC04F5A0554FF4E0510022A5
:100AA0004FF4E0582846FFF7CBFC4FF00109CDE9A1
:100AB00004772046CDE9026902AE3146FFF7F4FB28
:100AC00028463146CDE90477CDE90289FFF7ECFBF2
:100AD00007B0BDE8F08300BF303802400008024094
:100AE000FEE7704770477047FFF7B4BCB0B592B0EF
:100AF00000241F480225CDE90A44CDE908440194A9
:100B0000016841F080510160006800F08050019060
:100B1000019801941748016841F480410160006820
:100B200000F4804001900198109504201190A820B5
:100B30000F9006200E904FF48000CDE90C504FF43A
:100B4000803007900120069006A8FFF7CFFD4FF4F4
:100B50008050052105904FF4A05004900F20CDE95E
:100B60000254019001A8FFF7FFFC12B0B0BD00BF16
:100B700040380240007000400548D0F8801041F431
:100B80007001C0F880104FF000610160704700BF35
:100B900008ED00E0FEE7000010B5074C00F00F0381
:100BA000044AB0F1FF3F2344C8BF831808011870FE
:100BB00010BD00BF00E400E014ED00E0FFF754FCBE
:100BC000FFF794FFFFF73AFF0A4C20464FF4E0513D
:100BD0000122FFF735FC6420FFF756FB20464FF457
:100BE000E0510022FFF72CFC4FF4FA70FFF74CFBAA
:100BF000EBE700BF001C024002E008C8121F08C15A
:100C0000002AFAD170477047002001E001C1121F8D
:100C1000002AFBD170470000000000000000010224
:100C20000304060708090000480C00080000002023
:100C300010000000F80B0008580C000810000020FD
:100C400008040000080C000801000000100000006B
:080C50000024F4000000000084
:040000050800018965
:00000001FF
